:100000000C94D0150C94E1370C9412380C944338AE
:100010000C9474380C94A5380C94D6380C94073989
:100020000C9438390C9401160C9401160C9401169A
:100030000C9401160C9401160C9401160C940116E4
:100040000C9401160C9401160C9401160C940116D4
:100050000C9401160C9401160C9401160C94693939
:100060000C9401160C94F13C0C94273D0C94011651
:100070000C9401160C9401160C9401160C940116A4
:100080000C9401160C9401160C9401160C94011694
:100090000C9401160C9401160C9401160C948B29E7
:1000A0000C9401160C9401160C9401160C94011674
:1000B0000C9401160C9401160C9401160C94011664
:1000C0000C9401160C9401160C9401160C94011654
:1000D0000C9401160C9401160C9401160C94011644
:1000E0000C940116B818CF18E618FA181119281927
:1000F0003F195619691980199719BE24FF24342510
:100100007025A525DA250F2646266326A326D826A0
:10011000962D962D0B2E312F31308330D7303C3138
:10012000A031AD31BA311732BB3785378D379937AA
:10013000A637C737D437B13AB43AA33AA73AAD3A5B
:10014000EB3AB83ABC3AC23AC63ACA3AD03AD43A8A
:10015000D83AEB3ADE3AE23AE63A05A84CCDB2D4C8
:100160004EB93836A9020C50B9918688083CA6AA27
:10017000AA2ABE000000803F028988083CABAAAAD8
:100180002A3E000000803F07634236B79BD8A71A7B
:1001900039685618AEBAAB558C1D3CB7CC5763BD09
:1001A0006DEDFD753EF6177231BF000000803F080F
:1001B000000000BE922449123EABAAAA2ABECDCCB2
:1001C000CC4C3E00000080BEABAAAAAA3E000000B4
:1001D00000BF000000803F0000000000084178D30D
:1001E000BB4387D1133D190E3CC3BD4282AD2B3EAC
:1001F00068EC8276BED98FE1A93E4C80EFFFBE014C
:10020000C4FF7F3F000000000000485720436F6E8E
:10021000666967204F4B0030780052656164656401
:10022000203D20003078005772697474656E203D5F
:100230002000416464726573733A20002065727215
:100240006F727320647572696E6720485720636F00
:100250006E66696720646F776E6C6F6164004857E3
:1002600020436F6E66696720636865636B696E67BC
:100270002E2E2E0052656720506172616D204F4B0B
:1002800000307800526561646564203D200030785C
:10029000005772697474656E203D20004164647279
:1002A0006573733A2000206572726F7273206475F3
:1002B00072696E672052656720506172616D2064BB
:1002C0006F776E6C6F616400506172616D6574650B
:1002D0007220636865636B696E672E2E2E00507204
:1002E0006F6772616D204F4B00307800526561641A
:1002F0006564203D20003078005772697474656E23
:10030000203D2000416464726573733A20002065CB
:1003100072726F727320647572696E672050726FAB
:100320006772616D20646F776E6C6F6164005072EC
:100330006F6772616D20636865636B696E672E2EEF
:100340002E00487A004E6F7463683A006442004D94
:10035000616B6575703A00644200566F6C3A0050EC
:100360006F73740050726500506F733A00644200FE
:100370004272696768743A006D730044656361791D
:100380003A006D7300486F6C643A006D73004174FD
:100390007461636B3A00526174696F3A00644200A1
:1003A0005468723A006442005072654761696E3A5F
:1003B00000313220434F52444500454C45432E20E6
:1003C00056494F4C494E0041435553542E204755F2
:1003D000495400524F434B204755495400454C4522
:1003E000432E20424153530046554E4B592047550A
:1003F0004954004259504153530041637469766532
:10040000206974656D3A200020487A004E6F74634D
:10041000683A20002020202000206442004D616BBB
:100420006575703A2000202020200020644200568C
:100430006F6C3A2000202020200020506F73740041
:100440002050726500506F733A2000202020200059
:10045000206442004272696768743A2000202020BC
:100460002000206D730044656361793A20002020EC
:10047000202000206D7300486F6C643A200020201B
:10048000202000206D730041747461636B3A20007A
:100490002020202000526174696F3A200020202023
:1004A0002000206442005468723A2000202020205E
:1004B00000206442005072654761696E3A20002056
:1004C000202020006F6E00627970617373004566B2
:1004D00066656374207374617475733A2000456EA9
:1004E000636F6465722070756C7365733A20002ABF
:1004F0002A2A2A2A2A2A2A2A2A2A2A2A2A2A2A2A5C
:100500002A2A2A2A2A2A2A2A2A2A2A2A2A2A2A0075
:100510002A20202020313220434F524445202020E1
:100520002020202020202020202020202020202AC1
:10053000002A20202020454C45432056494F4C4955
:100540004E2020202020202020202020202020207D
:100550002A002A2020202041435553542047554942
:100560005420202020202020202020202020202057
:10057000202A002A20202020524F434B2047554953
:100580005420202020202020202020202020202037
:1005900020202A002A20202020454C454320475572
:1005A00049542020202020202020202020202020EE
:1005B0002020202A002A2020202046554E4B59205A
:1005C0004755495420202020202020202020202072
:1005D000202020202A002A20202020557365722008
:1005E000636F6E74726F6C20696E7465726661639E
:1005F00065202020202A002A2A2A2A2A2A2A2A2A72
:100600002A2A2A2A2A2A2A2A2A2A2A2A2A2A2A2A4A
:100610002A2A2A2A2A2A2A005B48005B324A0043F7
:100620006F6D70726573736F722056302E3100419A
:100630006964612044535020426F78003078004153
:100640006964612044535020636F6E74726F6C2034
:10065000776974682041524455494E4F00001C0090
:1006600018080000000000000000000000000080EA
:10067000000000000000010121CAC100800000004C
:1006800080000000000000000000000000000000EA
:1006900000000000800000000000000000000000DA
:1006A000000000000000000080000000800000004A
:1006B000800000008000000080000000800000003A
:1006C000800000008000000080000000800000002A
:1006D000800000008000000080000000800000001A
:1006E00080000000800000007FE62600797F2A005D
:1006F0007352E6006D76EF0067E72E00629FC00040
:100700005D9CFE0058DB67005457AE00500E200081
:100710004BFC0900481EF0004474210040F90F0012
:100720003DAB4C003A888B00378E9B0034BB680091
:100730000013070080000000000000000000090016
:100740008000000000000000000000000000000029
:100750000000000080000000000800000000000011
:100760000000000000000000000000000000000089
:100770000000000000000000000000000000000079
:100780000000000000000000000000000000000069
:100790000000000000000000000000000000000059
:10167000000000000000000000000001000000E881
:10168000010000000001000800E801000A0020013C
:10169000001000E201000000000100120120010022
:1016A0002800E2010000000001003A05200100329C
:1016B000062201002A0222010022032201001A044C
:1016C0002201004000E20100520A2001004A0B22E0
:1016D000010042072201003A0822010032092201DA
:1016E000005800E201005800C001005FFF20010027
:1016F0000000000100B800E20100C000F20100712A
:1017000008200100722E224100C22E220100610831
:10171000340100622E224100BA2E820100BA2E222C
:10172000010000000001006800E201007800F20101
:1017300000C800F6010091082009009800E20100AD
:1017400081082001FFF2312267008800E20100C910
:1017500008224900C9082001008800E227FFF23072
:101760002001009800E227000000000100990820F5
:1017700009FFF9082241009800E22600891A200199
:10178000000000000100D000E20100D800F20100DA
:10179000D000C001000000000100020DA101FFE126
:1017A00008200100020CA101FFE108224100A00075
:1017B000E20100D800C00100A7FF2001FFE10822DC
:1017C0000100B000E20100B000C001005FFF200195
:1017D00000A800E20100AA2F200100A800E20100F9
:1017E000AA2F200100F000E201010235200100FAD9
:1017F00036220100F232220100EA33220100E234F3
:101800002201010800E201FFF2372001011908223C
:1018100041013800E20101290820010119083401C1
:10182000013A382201012000E201012000C001013B
:101830003000F201010FFF2001011000E201FFF270
:10184000392001016000E201011108200101480076
:10185000E2010011082001015000E201FFE9082027
:101860000101B800E2010159082001016108224983
:10187000FFF108202601B800E2010179082001FFEC
:10188000F11322490159082001019908202501A0DE
:1018900000E2010189082001FFF1132249015908E2
:1018A000200101A908202501B000E20101C10820A2
:1018B00001000000000101D000F00101D108200169
:1018C000FFF113224901B9082001FFE90820250191
:1018D000B800E2010159082001016000E225016918
:1018E000082001017908224101C800E201017908BC
:1018F000200101C9142201018000E20101A000C001
:10190000010007FFA001018000C001014FFF2081FD
:10191000014000E201FFF1082001FFF7FF22410131
:101920009000E20101B000C0010007FFA00101909A
:1019300000C001014FFF2081014108220101400048
:10194000E201016908200101B908224100000000FC
:1019500001017000F00100000000010141082001B8
:10196000FF680002010141082001FF70000201012F
:1019700041082001FF780002010141082001FF8099
:101980000002010000000001000000000100000052
:101990000001000000000100000000010000000044
:1019A0000100000000010000000001000000000133
:1019B0000000000001000000000100000000010024
:1019C0000000000100000000010000000001000014
:1019D0000000010000000001000000000100000004
:1019E00000010000000001000000000100000000F4
:1019F00001000000000100000000010000000001E3
:101A000000000000010000000001000000000100D3
:101A100000000001000000000100000000010000C3
:101A200000000100000000010000000001000000B3
:101A300000010000000001000000000100000000A3
:101A40000100000000010000000001000000000192
:101A50000000000001000000000100000000010083
:101A60000000000100000000010000000001000073
:101A70000000010000000001000000000100000063
:101A80000001000000000100000000010000000053
:101A90000100000000010000000001000000000142
:101AA0000000000001000000000100000000010033
:101AB0000000000100000000010000000001000023
:101AC0000000010000000001000000000100000013
:101AD0000001000000000100000000010000000003
:101AE00001000000000100000000010000000001F2
:101AF00000000000010000000001000000000100E3
:101B000000000001000000000100000000010000D2
:101B100000000100000000010000000001000000C2
:101B200000010000000001000000000100000000B2
:101B300001000000000100000000010000000001A1
:101B40000000000001000000000100000000010092
:101B50000000000100000000010000000001000082
:101B60000000010000000001000000000100000072
:101B70000001000000000100000000010000000062
:101B80000100000000010000000001000000000151
:101B90000000000001000000000100000000010042
:101BA0000000000100000000010000000001000032
:101BB0000000010000000001000000000100000022
:101BC0000001000000000100000000010000000012
:101BD0000100000000010000000001000000000101
:101BE00000000000010000000001000000000100F2
:101BF00000000001000000000100000000010000E2
:101C000000000100000000010000000001000000D1
:101C100000010000000001000000000100000000C1
:101C200001000000000100000000010000000001B0
:101C300000000000010000000001000000000100A1
:101C40000000000100000000010000000001000091
:101C50000000010000000001000000000100000081
:101C60000001000000000100000000010000000071
:101C70000100000000010000000001000000000160
:101C80000000000001000000000100000000010051
:101C90000000000100000000010000000001000041
:101CA0000000010000000001000000000100000031
:101CB0000001000000000100000000010000000021
:101CC0000100000000010000000001000000000110
:101CD0000000000001000000000100000000010001
:101CE00000000001000000000100000000010000F1
:101CF00000000100000000010000000001000000E1
:101D000000010000000001000000000100000000D0
:101D100001000000000100000000010000000001BF
:101D200000000000010000000001000000000100B0
:101D300000000001000000000100000000010000A0
:101D40000000010000000001000000000100000090
:101D50000001000000000100000000010000000080
:101D6000010000000001000000000100000000016F
:101D70000000000001000000000100000000010060
:101D80000000000100000000010000000001000050
:101D90000000010000000001000000000100000040
:101DA0000001000000000100000000010000000030
:101DB000010000000001000000000100000000011F
:101DC0000000000001000000000100000000010010
:101DD0000000000100000000010000000001000000
:101DE00000000100000000010000000001000000F0
:101DF00000010000000001000000000100000000E0
:101E000001000000000100000000010000000001CE
:101E100000000000010000000001000000000100BF
:101E200000000001000000000100000000010000AF
:101E3000000001000000000100000000010000009F
:101E4000000100000000010000000001000000008F
:101E5000010000000001000000000100000000017E
:101E6000000000000100000000010000000001006F
:101E7000000000010000000001000000000100005F
:101E8000000001000000000100000000010000004F
:101E9000000100000000010000000001000000003F
:101EA000010000000001000000000100000000012E
:101EB000000000000100000000010000000001001F
:101EC000000000010000000001000000000100000F
:101ED00000000100000000010000000001000000FF
:101EE00000010000000001000000000100000000EF
:101EF00001000000000100000000010000000001DE
:101F000000000000010000000001000000000100CE
:101F100000000001000000000100000000010000BE
:101F200000000100000000010000000001000000AE
:101F3000000100000000010000000001000000009E
:101F4000010000000001000000000100000000018D
:101F5000000000000100000000010000000001007E
:101F6000000000010000000001000000000100006E
:101F7000000001000000000100000000010000005E
:101F8000000100000000010000000001000000004E
:101F9000010000000001000000000100000000013D
:101FA000000000000100000000010000000001002E
:101FB000000000010000000001000000000100001E
:101FC000000001000000000100000000010000000E
:101FD00000010000000001000000000100000000FE
:101FE00001000000000100000000010000000001ED
:101FF00000000000010000000001000000000100DE
:1020000000000001000000000100000000010000CD
:1020100000000100000000010000000001000000BD
:1020200000010000000001000000000100000000AD
:10203000010000000001000000000100000000019C
:10204000000000000100000000010000000001008D
:10205000000000010000000001000000000100007D
:10206000000001000000000100000000010000006D
:10207000000100000000010000000001000000005D
:10208000010000000001000000000100000000014C
:10209000000000000100000000010000000001003D
:1020A000000000010000000001000000000100002D
:1020B000000001000000000100000000010000001D
:1020C000000100000000010000000001000000000D
:1020D00001000000000100000000010000000001FC
:1020E00000000000010000000001000000000100ED
:1020F00000000001000000000100000000010000DD
:1021000000000100000000010000000001000000CC
:1021100000010000000001000000000100000000BC
:1021200001000000000100000000010000000001AB
:10213000000000000100000000010000000001009C
:10214000000000010000000001000000000100008C
:10215000000001000000000100000000010000007C
:10216000000100000000010000000001000000006C
:10217000010000000001000000000100000000015B
:10218000000000000100000000010000000001004C
:10219000000000010000000001000000000100003C
:1021A000000001000000000100000000010000002C
:1021B000000100000000010000000001000000001C
:1021C000010000000001000000000100000000010B
:1021D00000000000010000000001000000000100FC
:1021E00000000001000000000100000000010000EC
:1021F00000000100000000010000000001000000DC
:1022000000010000000001000000000100000000CB
:1022100001000000000100000000010000000001BA
:1022200000000000010000000001000000000100AB
:10223000000000010000000001000000000100009B
:10224000000001000000000100000000010000008B
:10225000000100000000010000000001000000007B
:10226000010000000001000000000100000000016A
:10227000000000000100000000010000000001005B
:10228000000000010000000001000000000100004B
:10229000000001000000000100000000010000003B
:1022A000000100000000010000000001000000002B
:1022B000010000000001000000000100000000011A
:1022C000000000000100000000010000000001000B
:1022D00000000001000000000100000000010000FB
:1022E00000000100000000010000000001000000EB
:1022F00000010000000001000000000100000000DB
:1023000001000000000100000000010000000001C9
:1023100000000000010000000001000000000100BA
:1023200000000001000000000100000000010000AA
:10233000000001000000000100000000010000009A
:10234000000100000000010000000001000000008A
:102350000100000000010000000001000000000179
:10236000000000000100000000010000000001006A
:10237000000000010000000001000000000100005A
:10238000000001000000000100000000010000004A
:10239000000100000000010000000001000000003A
:1023A0000100000000010000000001000000000129
:1023B000000000000100000000010000000001001A
:1023C000000000010000000001000000000100000A
:1023D00000000100000000010000000001000000FA
:1023E00000010000000001000000000100000000EA
:1023F00001000000000100000000010000000001D9
:1024000000000000010000000001000000000100C9
:1024100000000001000000000100000000010000B9
:1024200000000100000000010000000001000000A9
:102430000001000000000100000000010000000099
:102440000100000000010000000001000000000188
:102450000000000001000000000100000000010079
:102460000000000100000000010000000001000069
:102470000000010000000001000000000100000059
:102480000001000000000100000000010000000049
:102490000100000000010000000001000000000138
:1024A0000000000001000000000100000000010029
:1024B0000000000100000000010000000001000019
:1024C0000000010000000001000000000100000009
:1024D00000010000000001000000000100000000F9
:1024E00001000000000100000000010000000001E8
:1024F00000000000010000000001000000000100D9
:1025000000000001000000000100000000010000C8
:1025100000000100000000010000000001000000B8
:1025200000010000000001000000000100000000A8
:102530000100000000010000000001000000000197
:102540000000000001000000000100000000010088
:102550000000000100000000010000000001000078
:102560000000010000000001000000000100000068
:102570000001000000000100000000010000000058
:102580000100000000010000000001000000000147
:102590000000000001000000000100000000010038
:1025A0000000000100000000010000000001000028
:1025B0000000010000000001000000000100000018
:1025C0000001000000000100000000010000000008
:1025D00001000000000100000000010000000001F7
:1025E00000000000010000000001000000000100E8
:1025F00000000001000000000100000000010000D8
:1026000000000100000000010000000001000000C7
:1026100000010000000001000000000100000000B7
:1026200001000000000100000000010000000001A6
:102630000000000001000000000100000000010097
:102640000000000100000000010000000001000087
:102650000000010000000001000000000100000077
:102660000001000000000100000000010000000067
:102670000100000000010000000001000000000156
:102680000000000001000000000100000000010047
:102690000000000100000000010000000001000037
:1026A0000000010000000001000000000100000027
:1026B0000001000000000100000000010000000017
:1026C0000100000000010000000001000000000106
:1026D00000000000010000000001000000000100F7
:1026E00000000001000000000100000000010000E7
:1026F00000000100000000010000000001000000D7
:1027000000010000000001000000000100000000C6
:1027100001000000000100000000010000000001B5
:1027200000000000010000000001000000000100A6
:102730000000000100000000010000000001000096
:102740000000010000000001000000000100000086
:102750000001000000000100000000010000000076
:102760000100000000010000000001000000000165
:102770000000000001000000000100000000010056
:102780000000000100000000010000000001000046
:102790000000010000000001000000000100000036
:1027A0000001000000000100000000010000000026
:1027B0000100000000010000000001000000000115
:1027C0000000000001000000000100000000010006
:1027D00000000001000000000100000000010000F6
:1027E00000000100000000010000000001000000E6
:1027F00000010000000001000000000100000000D6
:1028000001000000000100000000010000000001C4
:1028100000000000010000000001000000000100B5
:1028200000000001000000000100000000010000A5
:102830000000010000000001000000000100000095
:102840000001000000000100000000010000000085
:102850000100000000010000000001000000000174
:102860000000000001000000000100000000010065
:102870000000000100000000010000000001000055
:102880000000010000000001000000000100000045
:102890000001000000000100000000010000000035
:1028A0000100000000010000000001000000000124
:1028B0000000000001000000000100000000010015
:1028C0000000000100000000010000000001000005
:1028D00000000100000000010000000001000000F5
:1028E00000010000000001000000000100000000E5
:1028F00001000000000100000000010000000001D4
:1029000000000000010000000001000000000100C4
:1029100000000001000000000100000000010000B4
:1029200000000100000000010000000001000000A4
:102930000001000000000100000000010000000094
:102940000100000000010000000001000000000183
:102950000000000001000000000100000000010074
:102960000000000100000000010000000001000064
:102970000000010000000001000000000100000054
:102980000001000000000100000000010000000044
:102990000100000000010000000001000000000133
:1029A0000000000001000000000100000000010024
:1029B0000000000100000000010000000001000014
:1029C0000000010000000001000000000100000004
:1029D00000010000000001000000000100000000F4
:1029E00001000000000100000000010000000001E3
:1029F00000000000010000000001000000000100D4
:102A000000000001000000000100000000010000C3
:102A100000000100000000010000000001000000B3
:102A200000010000000001000000000100000000A3
:102A30000100000000010000000001000000000192
:102A40000000000001000000000100000000010083
:102A50000000000100000000010000000001000073
:102A60000000010000000001000000000100000063
:102A700000010000000001001800000A0B02090C10
:102A80000D0E080703040100000000000000000014
:102A90000000000000000000000000000000000036
:102AA00000000000001211100000000000000000F3
:102AB0000000000000000000000000000000000115
:102AC000021020200808102040102040800201023F
:102AD0000108040201010204081020408080402007
:102AE0001008040201800402018040201008040242
:102AF00001080402010102040810204080010204C0
:102B0000081020408005050505070508080808028B
:102B10000202020A0A080804040404010101010176
:102B20000101010303030303030303040707070C65
:102B30000C0C0C0C0C0C0C0202020206060606061B
:102B40000606060B0B0B0B0B0B0B0B0000200023D8
:102B500000260029002C002F003200000100000395
:102B6000010601090100002200250028002B002E8B
:102B7000003100340002010000050108010B0100D2
:102B8000002100240027002A002D0030003300011E
:102B9000010000040107010A0100EE214228593D0D
:102BA00011241FBECFEFD1E2DEBFCDBF00E00CBFCE
:102BB00012E0A0E0B2E0E6E4F9E800E00BBF02C0FA
:102BC00007900D92AE33B107D9F724E0AEE3B2E03F
:102BD00001C01D92AC3DB207E1F71BE2C0EADBE2A7
:102BE00000E006C022970109FE010BBF0E948E443F
:102BF000CA39D10780E00807A9F70E949D3D0C94CF
:102C0000A1440C940000DC01ED91FC910190F08155
:102C1000E02D199427E73AE242E050E06CE178E0D9
:102C200086E30E947C3527E736E140E054E160E02E
:102C300074E086E30E947C3527E736E040E050E10F
:102C400060E070E086E30E947C352FE536E048E1E5
:102C500050E06CE178E086E30C947C351F93CF93D1
:102C6000DF93D6E0C0E011E0C1276C2F8DE00E9419
:102C7000253B6C2F87E10E94253B6C2F89E10E9448
:102C8000253B6AEF70E080E090E00E94E239D1508D
:102C900059F761E08DE00E94253B61E087E10E94E9
:102CA000253B61E089E1DF91CF911F910C94253B99
:102CB0006BE170E08FE394E0A6DF6BE176E08FE3F9
:102CC00094E00E94E73D6BE170E08FE394E09BDFCE
:102CD00068E176E08FE394E00C94E73DE9DF67EF8D
:102CE00075E08FE394E00E94253E66ED75E08FE38A
:102CF00094E00E94253E8091E5029091E6028230A8
:102D00009105A1F03CF4009771F00197D9F464E9C2
:102D100075E014C08430910579F05CF0059791F46A
:102D200060E175E00BC065EB75E008C063E775E036
:102D300005C062E575E002C061E375E08FE394E0F1
:102D40000E94253E6FEE74E08FE394E00E94253EE2
:102D50006AE070E08FE394E056DF6EED74E08FE39D
:102D600094E00E94E73D0E943B2CAB01BC012AE0AD
:102D700030E08FE394E00E94E93E6AE070E08FE388
:102D800094E041DF6EEC74E08FE394E00E94E73D55
:102D900080914803882319F067EC74E002C064EC6A
:102DA00074E08FE394E00E94253E6AE070E08FE3D8
:102DB00094E029DF80914A03811106C06FEB74E033
:102DC0008FE394E00E94E73D65EB74E08FE394E0CD
:102DD0000E94E73D40910C0350910D0360910E035A
:102DE00070910F0321E030E08FE394E00E940A40ED
:102DF00061EB74E08FE394E00E94253E80914A03EA
:102E0000813031F46CEA74E08FE394E00E94E73D96
:102E100066EA74E08FE394E00E94E73D4091080386
:102E20005091090360910A0370910B0321E030E097
:102E30008FE394E00E940A4062EA74E08FE394E03A
:102E40000E94253E80914A03823031F46DE974E09E
:102E50008FE394E00E94E73D65E974E08FE394E03E
:102E60000E94E73D409104035091050360910603E1
:102E70007091070322E030E08FE394E00E940B4062
:102E800080914A03833031F460E974E08FE394E089
:102E90000E94E73D67E874E08FE394E00E94E73D1D
:102EA000409100035091010360910203709103036C
:102EB00021E030E08FE394E00E940A4063E874E090
:102EC0008FE394E00E94253E80914A03843031F4E0
:102ED0006EE774E08FE394E00E94E73D67E774E0FB
:102EE0008FE394E00E94E73D4091FC025091FD0287
:102EF0006091FE027091FF0221E030E08FE394E0E8
:102F00000E940A4063E774E08FE394E00E94253E4C
:102F100080914A03853031F46EE674E08FE394E0EB
:102F20000E94E73D66E674E08FE394E00E94E73D8F
:102F30004091F8025091F9026091FA027091FB02FF
:102F400021E030E08FE394E00E940A4062E674E002
:102F50008FE394E00E94253E80914A03863031F44D
:102F60006DE574E08FE394E00E94E73D64E574E072
:102F70008FE394E00E94E73D4091F4025091F50206
:102F80006091F6027091F70221E030E08FE394E067
:102F90000E940A4060E574E08FE394E00E94253EC1
:102FA00080914A03873031F46BE474E08FE394E05E
:102FB0000E94E73D65E474E08FE394E00E94E73D02
:102FC0008091F302813019F460E474E004C082302F
:102FD00031F46AE374E08FE394E00E94253E80912F
:102FE0004A03883031F465E374E08FE394E00E9493
:102FF000E73D6FE274E08FE394E00E94E73D40918B
:10300000EF025091F0026091F1027091F20221E022
:1030100030E08FE394E00E940A406BE274E08FE3BB
:1030200094E00E94253E80914A03893031F466E2A3
:1030300074E08FE394E00E94E73D6DE174E08FE37C
:1030400094E00E94E73D4091EB025091EC026091C8
:10305000ED027091EE0221E030E08FE394E00E94F7
:103060000A4069E174E08FE394E00E94253E80917C
:103070004A038A3031F464E174E08FE394E00E9403
:10308000E73D6CE074E08FE394E00E94E73D4091FF
:10309000E7025091E8026091E9027091EA0221E0B2
:1030A00030E08FE394E00E940A4068E074E08FE330
:1030B00094E00E94253E6AE070E08FE394E0A3DD97
:1030C0006AEF73E08FE394E00E94E73D4AE050E04E
:1030D00060914A038FE394E00C94053F8FE392E004
:1030E0000E94863640E060E08FE392E00E948B36DB
:1030F00080914803882319F063EF73E02EC180911B
:10310000E5029091E60282309105A1F03CF400972F
:1031100071F00197D9F46DED73E014C0843091051E
:1031200079F05CF0059791F461EB73E00BC068EE09
:1031300073E008C063ED73E005C067EC73E002C0A4
:103140006AEB73E08FE392E00E94E73D41E060E0CC
:103150008FE392E00E948B3680914A0390E08B309F
:10316000910508F0FEC0FC01EE58FF4F0C947E4420
:1031700068EA73E08FE392E00E94E73D40910C0320
:1031800050910D0360910E0370910F0321E030E028
:103190008FE392E00E940A4065EA73E0DEC060EAD5
:1031A00073E08FE392E00E94E73D40910803509165
:1031B000090360910A0370910B0321E030E08FE373
:1031C00092E00E940A406DE973E0C7C066E973E0CF
:1031D0008FE392E00E94E73D409104035091050384
:1031E000609106037091070322E030E08FE392E0E4
:1031F0000C940A406EE873E08FE392E00E94E73D92
:103200004091000350910103609102037091030308
:1032100021E030E08FE392E00E940A406BE873E027
:103220009CC065E873E08FE392E00E94E73D409127
:10323000FC025091FD026091FE027091FF0221E0BC
:1032400030E08FE392E00E940A4062E873E085C0BC
:103250006BE773E08FE392E00E94E73D4091F80254
:103260005091F9026091FA027091FB0221E030E086
:103270008FE392E00E940A4068E773E06EC060E767
:1032800073E08FE392E00E94E73D4091F402509199
:10329000F5026091F6027091F70221E030E08FE3D1
:1032A00092E00E940A406DE673E057C068E673E062
:1032B0008FE392E00E94E73D8091F302813019F4A0
:1032C00064E673E04AC0823009F04BC06FE573E0FA
:1032D00044C06AE573E08FE392E00E94E73D4091CD
:1032E000EF025091F0026091F1027091F20221E040
:1032F00030E08FE392E00E940A4067E573E02DC062
:103300006FE473E08FE392E00E94E73D4091EB02AF
:103310005091EC026091ED027091EE0221E030E0FC
:103320008FE392E00E940A406CE473E016C065E40B
:1033300073E08FE392E00E94E73D4091E7025091F5
:10334000E8026091E9027091EA0221E030E08FE347
:1033500092E00E940A4062E473E08FE392E00C94F2
:10336000E73D0895CF93C82F80913E028C17B1F0AE
:10337000C13041F442E069E370E086E30E94972C9B
:1033800061E007C041E069E370E086E30E94972CAA
:1033900060E089E10E94253BC0933E02CF910895F1
:1033A00040E050E060E87FE34093CC025093CD02D0
:1033B0006093CE027093CF021092D4021092D50285
:1033C0001092D6021092D7022091E5023091E602C7
:1033D00022303105A1F05CF42115310581F0213056
:1033E0003105F1F440E050E06FE274E411C02430A4
:1033F000310551F04CF02530310531F011C040E07D
:1034000050E06AEF74E404C040E050E864E574E41E
:103410004093D8025093D9026093DA027093DB0292
:103420004091F4025091F5026091F6027091F7021A
:103430004093DC025093DD026093DE027093DF0262
:1034400093E09093E0021092E1028130D1F48093F6
:10345000E20248EC52E067E070E086E30E94252D2E
:1034600084E690E00E94073A1092E20248EC52E0B3
:1034700062E370E086E30E94252D84E690E00C94E0
:10348000073A8230B9F41092E20248EC52E067E069
:1034900070E086E30E94252D84E690E00E94073AC2
:1034A00081E08093E20248EC52E062E370E086E360
:1034B0000C94252D08952DE536E042E050E06CE1B6
:1034C00078E086E30C947C359F92AF92BF92CF92C6
:1034D000DF92EF92FF920F931F93CF93DF9300D071
:1034E0001F921F92CDB7DEB76EE273E08FE394E0D8
:1034F0000E94253EE12CF12C00E014E085E0A82E8E
:10350000CE0101966C01F6018A2D11928A95E9F798
:10351000960145E0B80186E30E94A435D60180E01B
:1035200090E097012958394EF901E80FF91F94905E
:10353000BD909B1409F442C04AE050E061E070E0A5
:103540008FE394E00E941A3F6EE073E08FE394E013
:103550000E94253E64E073E08FE394E00E94E73D23
:103560004AE050E0B8018FE394E00E941F3F69EF0A
:1035700072E08FE394E00E94E73D66EF72E08FE334
:1035800094E00E94E73D40E150E0692D8FE394E034
:103590000E94053F6CEE72E08FE394E00E94E73DED
:1035A00069EE72E08FE394E00E94E73D40E150E075
:1035B0006B2D8FE394E00E94053F2AC00196853071
:1035C000910509F0B1CF0F5F1F4F84E690E00E9494
:1035D000073A95E0E90EF11CE114E4E1FE0609F07A
:1035E00092CF6EED72E08FE394E00E94253E0F9043
:1035F0000F900F900F900F90DF91CF911F910F912F
:10360000FF90EF90DF90CF90BF90AF909F90089584
:10361000FFCFCF92DF92EF92FF920F931F93CF9342
:10362000DF9300D01F92CDB7DEB768EC72E08FE376
:1036300094E00E94253EE12CF12C00E010E019827C
:103640001A821B821C829E012F5F3F4F44E0B8010B
:1036500086E30E94A435DE01119680E090E0970198
:103660002958394FF901E80FF91FD490CD900097F0
:1036700019F44D2D4F70D42EDC1409F442C04AE0E9
:1036800050E061E070E08FE394E00E941A3F66EA48
:1036900072E08FE394E00E94253E6CE972E08FE3D4
:1036A00094E00E94E73D4AE050E0B8018FE394E0E7
:1036B0000E941F3F61E972E08FE394E00E94E73DC2
:1036C0006EE872E08FE394E00E94E73D40E150E055
:1036D0006D2D8FE394E00E94053F64E872E08FE374
:1036E00094E00E94E73D61E872E08FE394E00E947D
:1036F000E73D40E150E06C2D8FE394E00E94053FF0
:1037000026C001968430910509F0ACCF0F5F1F4FA2
:1037100084E690E00E94073A84E0E80EF11CE11490
:1037200040E1F40609F08BCF64E772E08FE394E0A8
:103730000E94253E0F900F900F900F90DF91CF9138
:103740001F910F91FF90EF90DF90CF900895FFCFE2
:103750000F931F93CF93DF93CDB7DEB768970FB664
:10376000F894DEBF0FBECDBF6EE572E08FE394E04C
:103770000E94253E8E010F5F1F4F88E1F8011192D4
:103780008A95E9F7980148E16CE178E086E30E94C8
:10379000A435EFE5F6E0D80104911D91011316C0A0
:1037A000319686E0E737F807B9F76AE072E08FE311
:1037B00094E00E94253E68960FB6F894DEBF0FBED7
:1037C000CDBFDF91CF911F910F9108954AE050E056
:1037D00061E070E08FE394E00E941A3F6CE372E0D6
:1037E0008FE394E00E94253E62E372E08FE394E071
:1037F0000E94E73D4AE050E06CE178E08FE394E01E
:103800000E941F3F67E272E08FE394E00E94E73D71
:1038100064E272E08FE394E00E94E73D40E150E013
:10382000602F8FE394E00E94053F6AE172E08FE32E
:1038300094E00E94E73D67E172E08FE394E00E942C
:10384000E73D40E150E0612F8FE394E00E94053FA7
:10385000FFCF0F931F9301EE1AE724EB3FE3009392
:10386000AD021093AE022093AF023093B0021092DB
:10387000B9021092BA021092BB021092BC0260937D
:10388000BD027093BE028093BF029093C00280E09D
:1038900090E0A0ECB0EC8093C1029093C202A093A0
:1038A000C302B093C40221E02093C5021092C60265
:1038B0008091E5029091E6020397039718F4209314
:1038C000C70202C01092C7024DEA52E062E070E007
:1038D00086E31F910F910C94252D8091E502909124
:1038E000E6028230910509F454C10CF06BC00097D8
:1038F00009F4E2C0019709F09AC28FE090E0A0E0DD
:10390000B0E080933C0390933D03A0933E03B093BB
:103910003F034EED5EEF6FEF7FEF40933803509320
:10392000390360933A0370933B034BE050E060E04F
:1039300070E04093340350933503609336037093E3
:1039400037034BE250E060E070E040933003509367
:10395000310360933203709333034AE650E060E032
:1039600070E040932C0350932D0360932E037093CB
:103970002F0344EF51E060E070E040932803509340
:10398000290360932A0370932B038093240390935D
:103990002503A0932603B0932703109220031092CF
:1039A0002103109222031092230310921C03109201
:1039B0001D0310921E0310921F038AE590E0A0E001
:1039C000B0E0ACC18430910509F4B5C10CF442C13A
:1039D000059709F02CC28EE190E0A0E0B0E0809362
:1039E0003C0390933D03A0933E03B0933F038CE5CB
:1039F0009EEFAFEFBFEF8093380390933903A0930E
:103A00003A03B0933B0388E090E0A0E0B0E08093FD
:103A1000340390933503A0933603B09337038AEBB6
:103A200090E0A0E0B0E08093300390933103A09346
:103A30003203B09333038AE690E0A0E0B0E08093D5
:103A40002C0390932D03A0932E03B0932F0381EDAD
:103A500093E0A0E0B0E08093280390932903A09323
:103A60002A03B0932B031092240310922503109283
:103A70002603109227031092200310922103109224
:103A800022031092230310921C0310921D03109224
:103A90001E0310921F0388E590E0A0E0B0E0809341
:103AA000180390931903A0931A03B0931B0389E59D
:103AB00090E0A0E0B0E0B3C110923C0310923D034F
:103AC00010923E0310923F0384ED9EEFAFEFBFEFE5
:103AD0008093380390933903A0933A03B0933B0348
:103AE00080E190E0A0E0B0E0809334039093350350
:103AF000A0933603B09337038AE690E0A0E0B0E0ED
:103B00008093300390933103A0933203B093330337
:103B100080932C0390932D03A0932E03B0932F0337
:103B200084EF91E0A0E0B0E0809328039093290314
:103B3000A0932A03B0932B038FE090E0A0E0B0E0C5
:103B40008093240390932503A0932603B093270327
:103B5000109220031092210310922203109223034B
:103B600010921C0310921D0310921E0310921F034B
:103B70008CE390E0A0E0B0E08093180390931903E9
:103B8000A0931A03B0931B038AE090E0A0E0B0E09A
:103B900046C18FE090E0A0E0B0E080933C039093BA
:103BA0003D03A0933E03B0933F0346EB5EEF6FEF00
:103BB0007FEF409338035093390360933A03709337
:103BC0003B034CE050E060E070E0409334035093DE
:103BD000350360933603709337034AE650E060E0A4
:103BE00070E040933003509331036093320370933D
:103BF000330340932C0350932D0360932E03709353
:103C00002F0341ED50E060E070E0409328035093B3
:103C1000290360932A0370932B03809324039093CA
:103C20002503A0932603B09327031092200310923C
:103C30002103109222031092230310921C0310926E
:103C40001D0310921E0310921F0381E490E0A0E078
:103C5000B0E064C08EE190E0A0E0B0E080933C036F
:103C600090933D03A0933E03B0933F0380E79EEF04
:103C7000AFEFBFEF8093380390933903A0933A03DB
:103C8000B0933B0388E090E0A0E0B0E08093340381
:103C900090933503A0933603B09337038EEB90E0F7
:103CA000A0E0B0E08093300390933103A0933203FF
:103CB000B09333038AE690E0A0E0B0E080932C0359
:103CC00090932D03A0932E03B0932F0381EA91E0EC
:103CD000A0E0B0E08093280390932903A0932A03E7
:103CE000B0932B0310922403109225031092260305
:103CF00010922703109220031092210310922203A6
:103D00001092230310921C0310921D0310921E03A5
:103D100010921F0388E590E0A0E0B0E080931803C4
:103D200090931903A0931A03B0931B0384E190E0CE
:103D3000A0E0B0E074C086E290E0A0E0B0E0809344
:103D40003C0390933D03A0933E03B0933F0389EE61
:103D50009EEFAFEFBFEF8093380390933903A093AA
:103D60003A03B0933B038AE090E0A0E0B0E0809398
:103D7000340390933503A0933603B093370387EC55
:103D800090E0A0E0B0E08093300390933103A093E3
:103D90003203B093330386EB90E0A0E0B0E0809371
:103DA0002C0390932D03A0932E03B0932F038CE943
:103DB00090E0A0E0B0E08093280390932903A093C3
:103DC0002A03B0932B038AED9FEFAFEFBFEF8093F1
:103DD000240390932503A0932603B0932703109206
:103DE00020031092210310922203109223031092B9
:103DF0001C0310921D0310921E0310921F0386E1F4
:103E000090E0A0E0B0E08093180390931903A09392
:103E10001A03B0931B038DE290E0A0E0B0E0809322
:103E2000140390931503A0931603B09317036091A6
:103E30003C0370913D0380913E0390913F030E94AB
:103E4000442C6DEC7CEC8CEC9DE30E945F2B20E01D
:103E500030E040E451E460E070E0CB010E94682B68
:103E600060930C0370930D0380930E0390930F03E4
:103E7000609138037091390380913A0390913B032C
:103E80000E94442C6DEC7CEC8CEC9DE30E945F2B3B
:103E900020E030E040EC50E460E070E080EC92EC38
:103EA0000E94682B609308037093090380930A03B0
:103EB00090930B0360913403709135038091360326
:103EC000909137030E94442C60E070E080E89EE30C
:103ED0000E945F2B20E030E040E851E460E070E0B9
:103EE00080E89FE30E94682B6093040370930503AE
:103EF0008093060390930703609130037091310320
:103F000080913203909133030E94442C60E070E072
:103F100080E09FE30E945F2B20E030E04AEF53E413
:103F200060E070E080E89FE30E94682B60930003EC
:103F300070930103809302039093030360912C0319
:103F400070912D0380912E0390912F030E94442C99
:103F500060E070E080E09FE30E945F2B20E030E0B3
:103F60004AEF53E460E070E080E89FE30E94682B32
:103F70006093FC027093FD028093FE029093FF0217
:103F8000609128037091290380912A0390912B035B
:103F90000E94442C60E070E080E89FE30E945F2B69
:103FA00020E030E04AEF54E460E070E080E89FE316
:103FB0000E94682B6093F8027093F9028093FA02D2
:103FC0009093FB0260912403709125038091260356
:103FD000909127030E94442C6DEC7CEC8CEC9DE3CB
:103FE0000E945F2B20E030E040E951E460E070E0A7
:103FF00080E991EC0E94682B6093F4027093F502C3
:104000008093F6029093F702609120037091210350
:10401000809122039091230341E00E94BE2B809364
:10402000F30260911C0370911D0380911E03909117
:104030001F030E94442C6DEC7CEC8CEC9DE30E94F1
:104040005F2B20E030E0A90160E070E080EA92ECB4
:104050000E94682B6093EF027093F0028093F1024C
:104060009093F202609118037091190380911A03E2
:1040700090911B030E94442C6DEC7CEC8CEC9DE336
:104080000E945F2B20E030E040EC51E460E070E003
:1040900080EF91EC0E94682B6093EB027093EC022E
:1040A0008093ED029093EE026091140370911503DA
:1040B00080911603909117030E94442C60E070E0F9
:1040C00088E492E40E945F2B20E030E84BE356E462
:1040D00060E070E08AEF93E40E94682B6093E7024F
:1040E0007093E8028093E9029093EA0228EB3EE1A4
:1040F00045E350E460E070E086E30E94132D84E61F
:1041000090E00E94073A20E030E040EA51E46091FC
:104110000C0370910D0380910E0390910F030E9488
:1041200088409B01AC0160E070E080E291E40E9475
:1041300073429B01AC0161E070E086E30E94132DA5
:1041400084E690E00E94073A8091F30229D984E640
:1041500090E00E94073A6091E7027091E802809136
:10416000E9029091EA0275DB84E690E00E94073A4A
:104170008091080390910903A0910A03B0910B0369
:104180008093950290939602A0939702B093980221
:104190008091040390910503A0910603B091070359
:1041A0008093990290939A02A0939B02B0939C02F1
:1041B0008091000390910103A0910203B091030349
:1041C00080939D0290939E02A0939F02B093A002C1
:1041D0008091FC029091FD02A091FE02B091FF023D
:1041E0008093A1029093A202A093A302B093A40291
:1041F0008091F8029091F902A091FA02B091FB022D
:104200008093A5029093A602A093A702B093A80260
:104210008091EB029091EC02A091ED02B091EE0240
:104220008093A9029093AA02A093AB02B093AC0230
:1042300045E952E06CE070E086E30E94653384E675
:1042400090E00E94073A20E030E040EA51E46091BB
:10425000EF027091F0028091F1029091F2020E94BF
:1042600088409B01AC0160E070E080E291E40E9434
:1042700073429B01AC0167E370E086E30E941C2D52
:1042800084E690E00E94073A60913C0370913D0300
:1042900080913E0390913F030E94442C10924A0368
:1042A000089561E08DE00E94EC3A61E087E10E94B0
:1042B000EC3A61E087E10E94253B61E089E10E94E0
:1042C000EC3A61E089E10E94253B62E082E10E94D4
:1042D000EC3A62E083E10E94EC3A26E040E052ECE6
:1042E00061E070E08FE394E00E94913C0E945816D8
:1042F0006FE376E08FE394E00E94253E6CE376E086
:104300008FE394E00E94E73D40E150E06CE670E00E
:104310008FE394E00E94D33E20E042E060E18FE32F
:1043200092E00E94A33640E060E08FE392E00E94BA
:104330008B366FE276E08FE392E00E94E73D41E04A
:1043400060E08FE392E00E948B366FE176E08FE3CE
:1043500092E00E94E73D0E94012C61E08BE00E9408
:10436000253B64E670E080E090E00E94E2390E9424
:104370000A1664E170E080E090E00E94E239A4D87F
:1043800065E070E080E090E00E94E23942D965E0AB
:1043900070E080E090E00E94E239DAD962E070E0FB
:1043A00080E090E00E94E2390E942E1682E090E0C8
:1043B0009093E6028093E5029093E4028093E302F7
:1043C0008CDA79D81092480341E069E370E086E323
:1043D0000E94972C60E089E10C94253BCF92EF92EC
:1043E0000F9397E0C92E26E0E22E0EE02FE040E189
:1043F00061E18FE392E00E9446370F91EF90CF90FA
:104400000895CF92DF92EF92FF928FE394E00E94A3
:10441000823B181619060CF054C08FE394E00E94FA
:104420009B3B809394028037B1F1BCF48136A9F1B3
:1044300064F48B32B1F18D3209F043C00E943B2C01
:10444000615071098109910932C0893601F18F36B5
:1044500001F18536B1F582E021C08437A1F034F452
:10446000813761F0823769F583E018C0873749F0FA
:10447000893759F0853729F586E010C010924A0334
:1044800020C081E00BC084E009C085E007C087E060
:1044900005C088E003C089E001C08AE080934A0338
:1044A00010C00E943B2C6F5F7F4F8F4F9F4F6093D8
:1044B00010037093110380931203909313030E94CF
:1044C000442C86E30E94733A909383028093820285
:1044D0006C01E12CF12C46E0CC0CDD1CEE1CFF1C29
:1044E0004A95D1F720917E0230917F02409180025F
:1044F00050918102AFE3B0E00E948444C60ED71E03
:10450000E81EF91ED701C60156E0B695A795979506
:1045100087955A95D1F780937E0290937F02A0935E
:104520008002B0938102D701C6016CE0B695A795D1
:10453000979587956A95D1F780937A0290937B023D
:10454000A0937C02B0937D02909393028093920299
:10455000609190027091910244E050E00E94F22B31
:10456000811114C064E080919202909193020E94A4
:10457000E12B8B3008F089E080934A03809192020E
:1045800090919302909391028093900287E30E940E
:10459000733A90937902809378026C01E12CF12CAC
:1045A000F6E0CC0CDD1CEE1CFF1CFA95D1F7209137
:1045B0007402309175024091760250917702AFE318
:1045C000B0E00E948444C60ED71EE81EF91ED70133
:1045D000C60126E0B695A795979587952A95D1F7B8
:1045E0008093740290937502A0937602B093770241
:1045F000D701C6013CE0B695A795979587953A9562
:10460000D1F78093700290937102A0937202B093DD
:10461000730290938F0280938E0260918C0270914E
:104620008D0244E050E00E94F22B811108C080917D
:104630008E0290918F0290938D0280938C0288E37A
:104640000E94733A90936F0280936E026C01E12C8A
:10465000F12C66E0CC0CDD1CEE1CFF1C6A95D1F73A
:1046600020916A0230916B0240916C0250916D0270
:10467000AFE3B0E00E948444C60ED71EE81EF91EC8
:10468000D701C60176E0B695A795979587957A9557
:10469000D1F780936A0290936B02A0936C02B0935F
:1046A0006D02D701C601ECE0B695A7959795879561
:1046B000EA95D1F78093660290936702A09368020F
:1046C000B093690290938B0280938A026091880272
:1046D0007091890244E050E00E94F22B811108C0E1
:1046E00080918A0290918B02909389028093880234
:1046F00089E30E94733A90936502809364026C018F
:10470000E12CF12C36E0CC0CDD1CEE1CFF1C3A95A4
:10471000D1F7209160023091610240916202509184
:104720006302AFE3B0E00E948444C60ED71EE81EC9
:10473000F91ED701C60146E0B695A79597958795CE
:104740004A95D1F78093600290936102A093620230
:10475000B0936302D701C6015CE0B695A795979523
:1047600087955A95D1F780935C0290935D02A09350
:104770005E02B0935F0290938702809386026091FD
:1047800084027091850244E050E00E94F22B811176
:1047900008C0809186029091870290938502809351
:1047A000840284E00E945A3B892BA9F461E08DE0E9
:1047B0000E94253B62E370E080E090E00E94E239D5
:1047C00084E00E945A3B892BE9F480915B028F5F61
:1047D00080935B0217C080915B029FEF980F993026
:1047E00010F481E004C08B50833120F482E0809388
:1047F0005A0202C010925A0210925B0260E08DE0F1
:104800000E94253B82E10E945A3B892BC1F562E35D
:1048100070E080E090E00E94E23982E10E945A3B21
:10482000892B79F580915902813059F181E080938B
:1048300059028091E5029091E60282309105A9F03B
:104840003CF4009779F00197E1F482E090E012C027
:104850008330910569F00697A4F41092E602109255
:10486000E5020FC081E090E005C083E090E002C067
:1048700084E090E09093E6028093E50202C01092FB
:10488000590283E10E945A3B892BC1F462E370E034
:1048900080E090E00E94E23983E10E945A3B892B3C
:1048A00079F480915802813059F091E09093580248
:1048B0008091480389278093480302C010925802D0
:1048C0000E94B33960934403709345038093460379
:1048D00090934703C0904003D0904103E09042037F
:1048E000F0904303DC01CB018C199D09AE09BF098F
:1048F0008A3F9105A105B10508F49CC28091570239
:104900008F5F80935702843049F420E042E060E1F9
:104910008FE392E00E94A336109257022091E302A7
:104920003091E4028091E5029091E6022817390760
:1049300051F00E946D1C8091E5029091E6029093E7
:10494000E4028093E302809148030E94B2198091AF
:104950004A0390914903981729F091E0909300023F
:104960008093490390E08B30910508F04FC2FC0121
:10497000E358FF4F209100020C947E44222359F00B
:104980001092000260913C0370913D0380913E03C0
:1049900090913F0379D76FD760933C0370933D03A9
:1049A00080933E0390933F036DEC7CEC8CEC9DE395
:1049B00086D620E030E040E451E460E070E0CB01D6
:1049C00087D660930C0370930D0380930E0390932E
:1049D0000F0320E030E040EA51E40E9488409B0150
:1049E000AC0160E070E080E291E40E9473429B01C0
:1049F000AC0161E070E086E30E94132D07C2222320
:104A000059F010920002609138037091390380913F
:104A10003A0390913B0338D72ED7609338037093B5
:104A2000390380933A0390933B036DEC7CEC8CEC60
:104A30009DE345D620E030E040EC50E460E070E0DB
:104A400080EC92EC45D66093080370930903809341
:104A50000A0390930B0360939502709396028093E0
:104A600097029093980234C0222359F010920002CA
:104A70006091340370913503809136039091370330
:104A800003D7F9D6609334037093350380933603CC
:104A90009093370360E070E080E89EE310D620E05A
:104AA00030E040E851E460E070E080E89FE310D639
:104AB00060930403709305038093060390930703A8
:104AC0006093990270939A0280939B0290939C0248
:104AD00045E952E06CE070E086E30E94653396C1E0
:104AE000222359F01092000260913003709131033B
:104AF0008091320390913303C7D6BDD660933003C3
:104B000070933103809332039093330360E070E03D
:104B100080E09FE3D4D520E030E04AEF53E460E04A
:104B200070E080E89FE3D4D56093000370930103A5
:104B3000809302039093030360939D0270939E02FF
:104B400080939F029093A002C3CF222359F010922A
:104B5000000260912C0370912D0380912E0390919F
:104B60002F0392D688D660932C0370932D038093E5
:104B70002E0390932F0360E070E080E09FE39FD5C9
:104B800020E030E04AEF53E460E070E080E89FE32B
:104B90009FD56093FC027093FD028093FE02909378
:104BA000FF026093A1027093A2028093A3029093EC
:104BB000A4028ECF222359F01092000260912803A4
:104BC0007091290380912A0390912B035DD653D6CF
:104BD000609328037093290380932A0390932B03F7
:104BE00060E070E080E89FE36AD520E030E04AEFC3
:104BF00054E460E070E080E89FE36AD56093F802D7
:104C00007093F9028093FA029093FB026093A502DD
:104C10007093A6028093A7029093A80259CF2223F3
:104C200059F0109200026091240370912503809145
:104C300026039091270328D61ED6609324037093F1
:104C4000250380932603909327036DEC7CEC8CEC7A
:104C50009DE335D520E030E040E951E460E070E0CC
:104C600080E991EC35D56093F4027093F50280935E
:104C7000F6029093F7026093DC027093DD0280935A
:104C8000DE029093DF028091F3021AC0222359F0D2
:104C90001092000260912003709121038091220301
:104CA00090912303F1D5E7D56093200370932103FE
:104CB000809322039093230341E060D58093F30215
:104CC0000E94D019A3C0222359F0109200026091D3
:104CD0002003709121038091220390912303D4D566
:104CE000CAD560932003709321038093220390938D
:104CF00023036DEC7CEC8CEC9DE3E1D420E030E010
:104D0000A90160E070E080EA92ECE2D46093EF02E7
:104D10007093F0028093F1029093F20220E030E071
:104D200040EA51E40E9488409B01AC0160E070E0E1
:104D300080E291E40E9473429B01AC0167E370E062
:104D400086E37AD663C0222359F010920002609164
:104D500018037091190380911A0390911B0394D545
:104D60008AD5609318037093190380931A03909364
:104D70001B036DEC7CEC8CEC9DE3A1D420E030E0D7
:104D800040EC51E460E070E080EF91ECA1D46093DE
:104D9000EB027093EC028093ED029093EE0260932D
:104DA000A9027093AA028093AB029093AC0290CEBA
:104DB000222359F0109200026091140370911503A0
:104DC00080911603909117035FD555D56093140316
:104DD00070931503809316039093170360E070E0BF
:104DE00088E492E46CD420E030E84BE356E460E0E1
:104DF00070E08AEF93E46CD46093E7027093E8026A
:104E00008093E9029093EA020E94291C0E946E1688
:104E10000E946E188091440390914503A09146032F
:104E2000B09147038093400390934103A0934203C2
:104E3000B0934303FF90EF90DF90CF900895CA01A5
:104E400040915803442379F030935D0320935C0331
:104E50007093600360935F0390935A0380935903A8
:104E600021E02093570308958091820390E02091E0
:104E70008303821B9109089520918303809182030B
:104E8000281750F4E22FF0E0EC57FC4F808190E0BF
:104E90002F5F2093830308958FEF9FEF0895E09194
:104EA000830380918203E81730F4F0E0EC57FC4F65
:104EB000808190E008958FEF9FEF08950895CF923D
:104EC000DF92EF92FF920F931F93CF93DF937C01BA
:104ED000CB018A0120915803222389F0EB016B0159
:104EE000C40ED51ECC15DD0561F06991D701ED9199
:104EF000FC910190F081E02DC7011995F3CF642F4B
:104F0000E1D1C801DF91CF911F910F91FF90EF90F8
:104F1000DF90CF900895CF93DF931F92CDB7DEB788
:104F20006983209158032223D1F020915B03203222
:104F300040F021E030E0FC013383228380E090E008
:104F400014C080915E03E82FF0E0EF59FC4F998187
:104F500090838F5F80935E0380935B0304C061E066
:104F6000CE010196AFD181E090E00F90DF91CF911B
:104F70000895FC011382128248EE53E060E070E075
:104F800044835583668377838AE092E091838083AC
:104F90000895109283031092820310925E03109280
:104FA0005B0310925A031092590310925D03109202
:104FB0005C036BC09A01AB0160E074E284EF90E0A7
:104FC0000E945C4420513109410951095695479589
:104FD000379527952093B8000895862F413208F021
:104FE00040E264E873E07FD01092830380938203F1
:104FF000089521E0F2CF81E080935803609381030C
:1050000010925E0310925B0310925A0310925903A0
:1050100010925D0310925C030895EF920F938091BC
:1050200057038823A9F02091590330915A034091E6
:105030005F035091600380915C0390915D03E62EC5
:1050400001E0BC0180918103E7D01092570309C0B1
:10505000062F21E040915B0361E673E080918103BC
:1050600086D010925E0310925B0310925D03109243
:105070005C0310925A0310925903109258030F9137
:10508000EF9008958BE493E074CF10921B0481E0BD
:10509000809318041092170410921A041092EF03D0
:1050A0001092EE031092EC031092EB031092EA03BD
:1050B0001092E9031092E80361E084E10E94253B2D
:1050C00061E085E10E94253BE9EBF0E080818E7F85
:1050D000808380818D7F808388E48093B80085E41D
:1050E0008093BC000895413208F03FC090911B04AA
:1050F0009111FCCF91E090931B04209318042FEFA3
:105100002093A4031092F003240F2093ED039093B7
:10511000190490911904880F892B809319048091A8
:105120001704813041F41092170480911904809380
:10513000BB0085EC01C085EE8093BC0080911B0410
:105140008130E1F38091F003841710F44091F00373
:1051500023EF33E0FB01D9018A2F821B841718F457
:105160008D918193F9CF842F089580E008950F9356
:10517000413208F048C090911B049111FCCF10926D
:105180001A0492E090931B04009318049FEF9093ED
:10519000A4031092F0034093ED03FB0163EF73E06F
:1051A000DB019A2F961B941718F491919D93F9CFD8
:1051B0001092190490911904880F892B8093190477
:1051C00080911704813041F41092170480911904E2
:1051D0008093BB0085EC01C085EE8093BC00222348
:1051E00021F080911B048230E1F38091A4038F3F72
:1051F00061F08091A403803251F08091A403803348
:1052000041F483E007C081E005C080E003C082E094
:1052100001C084E00F910895EF920F9390911B04C9
:105220009111FCCF92E090931B0491E090931A04AB
:10523000E09218049FEF9093A4031092EF03109252
:10524000EE037093EA036093E9033093EC03209339
:10525000EB031092E8035093F2034093F103109292
:10526000190490911904880F892B80931904809157
:105270001704813041F4109217048091190480932F
:10528000BB0085EC01C085EE8093BC00002321F0BB
:1052900080911B048230E1F38091A4038F3F51F091
:1052A0008091A403803241F08091A403803331F4D3
:1052B00083E005C080E003C082E001C084E00F917C
:1052C000EF900895613298F420911B04243089F402
:1052D0006093C603FC0188EC93E0DC012A2F281BB5
:1052E000261718F421912D93F9CF80E0089581E0DD
:1052F000089582E0089585ED8093BC008091BC0004
:1053000084FDFCCF10921B04089585EC8093BC00B3
:1053100010921B0408951F920F920FB60F92112442
:105320000BB60F922F933F934F935F936F937F939F
:105330008F939F93AF93BF93EF93FF938091B900A7
:10534000887F803609F4EEC068F5883209F45BC0C6
:1053500090F4803109F454C038F4882309F445C12D
:10536000883009F44DC044C1883109F44CC0803202
:1053700009F4AFC03DC1803409F4BAC048F48033A9
:1053800009F4A7C0883309F033C18093A403F9C09E
:10539000803509F4A1C0883509F4AFC0883409F01C
:1053A00027C125C1883909F416C1A8F4883709F442
:1053B000B9C038F4883609F4B5C0803709F4B2C0F2
:1053C00017C1883809F407C1803909F4B1C08038A1
:1053D00009F00EC1ADC0803B09F4D5C038F4803A65
:1053E00009F4B8C0883A09F4CEC002C1803C09F47F
:1053F000F6C0883C09F4F3C0883B09F4D9C0F8C072
:105400008091190415C080911A04811115C09091E2
:10541000F0038091ED03981708F07BC0E091F00352
:1054200081E08E0F8093F003F0E0ED50FC4F80811F
:105430008093BB0085ECD0C040911A04413009F044
:10544000D7C02091EE033091EF038091EB03909150
:10545000EC0328173907B0F58091E8038230D8F4BF
:105460008091E803811107C08091E9039091EA03DC
:105470009093BB000AC08091E803813031F48091A1
:10548000E9039091EA038093BB008091E8038F5F6A
:105490008093E803CFCFE091F103F091F203CF01C5
:1054A00001969093F2038093F103E491E093BB00A3
:1054B0008091EE039091EF0301969093EF03809318
:1054C000EE03B8CF80911804811191C04093170466
:1054D00027C08093A4038BC0E091F00381E08E0F7E
:1054E0008093F0038091BB00F0E0ED50FC4F80838F
:1054F0009091F0038091ED036BC0E091F00381E0A7
:105500008E0F8093F0038091BB00F0E0ED50FC4FD4
:1055100080838091180481116AC081E08093170410
:1055200084EA5EC083E080931B041092A50382CFBF
:105530008091A503803208F04EC0E091A50381E080
:105540008E0F8093A5038091BB00F0E0EA55FC4FDD
:10555000808370CF8091A503803230F4E091A50361
:10556000F0E0EA55FC4F1082C6DE6091A50370E0C2
:10557000E0911304F091140486EA93E019951092D7
:10558000A503C3DE35C084E080931B041092C703DB
:105590001092C603E0911504F091160419958091BC
:1055A000C603811105C081E08093C6031092C80331
:1055B000E091C70381E08E0F8093C703F0E0E853CA
:1055C000FC4F80818093BB009091C7038091C603FC
:1055D000981708F42FCF85E88093BC0009C085ECAC
:1055E0008093BC0010921B0403C01092A40383DEBE
:1055F000FF91EF91BF91AF919F918F917F916F91AB
:105600005F914F913F912F910F900BBE0F900FBE66
:105610000F901F90189583E00E945A3B80932104BD
:1056200082E00E945A3B8093200480911F04809363
:105630001E048091210490912004880F892B80936F
:105640001F0490911F0480911E0489278330B1F1BB
:1056500090911F0480911E04981301C008958091B9
:105660001E0420911F0481702695217090911D04C5
:1056700082130EC0903111F1809122049091230485
:10568000A0912404B09125040197A109B1090DC08E
:105690009130A1F08091220490912304A0912404E0
:1056A000B09125040196A11DB11D80932204909311
:1056B0002304A0932404B0932504089508956093CF
:1056C00001027093020280930302909304020895F2
:1056D0008F929F92AF92BF92CF92DF92EF92FF9202
:1056E0000F931F93CF93DF935B016C014901D42F7C
:1056F000C52F60912204709123048091240490911D
:1057000025040E9423412091010230910202409120
:105710000302509104020E9410427B018C0194010B
:105720004D2F5C2F0E940C42181624F481E08093C8
:105730001D0414C09501A601B701C8010E94814053
:1057400087FF07C080E180931D044501DC2DCD2D2E
:1057500005C010921D044701D02FC12FB4018D2F19
:105760009C2FDF91CF911F910F91FF90EF90DF90D1
:10577000CF90BF90AF909F908F9008956131710549
:1057800081059105D4F04423C1F0DC01CB0124E074
:10579000B595A795979587952A95D1F7BC016F7018
:1057A000772781E090E002C0880F991F4A95E2F7C1
:1057B0008617970720F4BC0102C061E070E0CB01BE
:1057C00008952FEF260F2A3050F42AE030E0261BF0
:1057D000310902C0969587952A95E2F7089581E0F0
:1057E00090E008959B01240F351F8217930734F42E
:1057F000641B750B21E0681779070CF020E0822FFD
:10580000089560E084E00E94EC3A60E083E00E944A
:10581000EC3A60E082E00E94EC3A41E050E06BE05C
:105820007BE280E00E94703741E050E06BE07BE279
:1058300081E00E94703761E08CE00E94EC3A61E008
:105840008BE00E94EC3A60E08CE00E94253B60E037
:105850008BE00E94253B8BE493E09BDB40E85AE120
:1058600066E070E08BE493E0A5DB6AE070E080E046
:1058700090E00C94E23960912204709123048091AD
:1058800024049091250408956093220470932304C6
:1058900080932404909325040895CF93DF93EA0125
:1058A00020E030E040E05BE40E9410420E94F040C3
:1058B000988389837A836B83DF91CF910895EF92E8
:1058C000FF920F931F93CF93DF9300D0CDB7DEB736
:1058D000062F142F682F8BE493E02A833B83798370
:1058E0008ADB7981672F8BE493E015DB602F8BE4F3
:1058F00093E011DB2A81022FE22E3B81F32E8E2DC5
:10590000801B811738F4F70161917F018BE493E0EC
:1059100002DBF5CF61E08BE493E00F900F900F90E6
:10592000DF91CF911F910F91FF90EF9076CBCF93A6
:10593000DF9300D01F92CDB7DEB7FB01442341F0C7
:1059400050E060E070E0415051096109710903C005
:1059500040E050E0BA0119821A821B824C839E01FA
:105960002F5F3F4F44E0BF01AADF0F900F900F90D1
:105970000F90DF91CF910895AF92BF92CF92DF92B7
:10598000EF92FF920F931F93CF93DF9300D01F925C
:105990001F92CDB7DEB7B82EA42E680179017983A6
:1059A0006A8360911C0470E06B5E774F9E012F5FED
:1059B0003F4F42E084DF1982AE014E5F5F4FC70167
:1059C000B6016BDF60911C0470E0605F774F9E0151
:1059D0002F5F3F4F45E08B2D72DF80911C048F5F5E
:1059E00080931C04A11002C0853069F419828CE3F5
:1059F0008A839E012F5F3F4F42E06CE178E08B2D60
:105A00005EDF10921C040F900F900F900F900F907C
:105A1000DF91CF911F910F91FF90EF90DF90CF908A
:105A2000BF90AF9008950F931F9389019A0141E0B1
:105A3000A3DF1F910F9108950F931F9389019A017E
:105A400041E09ADF1F910F9108952F923F924F925C
:105A50005F926F927F928F929F92AF92BF92CF92FE
:105A6000DF92EF92FF920F931F93CF93DF93CDB707
:105A7000DEB7A1970FB6F894DEBF0FBECDBF898FFA
:105A80007B8F6A8F1A0120E030E040E252E4D101BE
:105A900054966D917D918D919C9157970E9488406D
:105AA0009B01AC0160E070E080E291E40E947342EF
:105AB0006D837E838F8398872AED3FE049EC50E425
:105AC000F10160897189828993890E94104220E0E6
:105AD00030E84BE357E40E9488406B017C0120E0F2
:105AE00030E040EA51E4D1011C966D917D918D9199
:105AF0009C911F970E9488409B01AC0160E070E080
:105B000080E291E40E947342162F79A388A3092FA3
:105B1000F101808D90E08C30910508F0E5C4FC0126
:105B2000E857FF4FC701B6010C947E440E94DF4244
:105B30004B015C01D1016D917D918D919C919B01F7
:105B4000AC010E941D409B01AC01C501B4010E9443
:105B500088404B015C012D813E814F8158850E9418
:105B600088402B013C0120E030E040E85FE30E94E8
:105B70001D4069837A838B839C83C701B6010E9491
:105B800085406B017C0120E030E040E050EC0E9459
:105B90001042698B7A8B8B8B9C8BA301920160E006
:105BA00070E080E89FE30E941C4069877A878B87BA
:105BB0009C872D813E814F815885C501B4010E948B
:105BC00010424B015C0120E030E040E85FE30E94BE
:105BD0001D40212F39A148A1502F0E9410422B01B6
:105BE0003C01A7019601C701B6010E941D409058D3
:105BF000212F39A148A1502F0E9410426D877E8726
:105C00008F87988BA501940160E070E080E89FE3A6
:105C10000E941C401DC10E94DF424B015C012D818E
:105C20003E814F81588560E070E080E89FE30E94EC
:105C300088409B01AC016D817E818F8198850E9497
:105C40001D402B013C01F1012481358146815781A2
:105C500060E070E080E89FE30E94884020E030E050
:105C600040E85FE30E941C409B01AC01C301B2010C
:105C70000E94104220E030E040E050E40E941D40CD
:105C80000E94E94269837A838B839C8320E030E021
:105C900040E85FE36D817E818F8198850E941D4081
:105CA0002B013C0120E030E040E85FE36D817E8124
:105CB0008F8198850E941C406D877E878F87988B87
:105CC000C701B6010E94854069877A878B879C87C8
:105CD0009B01AC016D857E858F8598890E9410425D
:105CE0006D8B7E8B8F8B988F9B01AC01C301B201B2
:105CF0000E941D406B017C016D817E818F819885A2
:105D00000E94E9429B01AC010E941D40698B7A8B85
:105D10008B8B9C8B20E030E040E05FE3C501B40159
:105D20000E94104229813A814B815C810E9410427D
:105D30009B01AC0169897A898B899C890E941042F8
:105D40004B015C019B01AC01C701B6010E941D40E3
:105D500069837A838B839C8329853A854B855C850F
:105D6000C301B2010E9410426C8F7D8F8E8F9F8F76
:105D70009B01AC016D857E858F8598890E941D40B1
:105D800020E030E040E050EC0E941042698B7A8BBA
:105D90008B8B9C8BA5019401C701B6010E941C400E
:105DA00069877A878B879C872D893E894F89588D93
:105DB000C301B2010E941C406B017C01A50194014A
:105DC0000E941D409B01AC016D817E818F81988571
:105DD0000E941042212F39A148A1502F0E94104249
:105DE0002B013C012D813E814F815885CA01B901AB
:105DF0000E941D406D8B7E8B8F8B988F2C8D3D8DDF
:105E00004E8D5F8D6D857E858F8598890E941C40A3
:105E10009B01AC016D897E898F89988D0E9410420B
:105E2000212F39A148A1502F0E9410426D877E87F3
:105E30008F87988BA5019401C701B6010E941C4071
:105E40009B01AC016D817E818F8198850E941042FB
:105E5000212F39A148A1502F0E9410424B015C0113
:105E600043C30E94DF424B015C012D813E814F8183
:105E7000588560E070E080E89FE30E9488409B01C5
:105E8000AC016D817E818F8198850E941D402B0120
:105E90003C01D10114962D913D914D915C91179744
:105EA00060E070E080E89FE30E94884020E030E0FE
:105EB00040E85FE30E941C409B01AC01C301B201BA
:105EC0000E94104220E030E040E050E40E941D407B
:105ED0000E94E94269837A838B839C8320E030E0CF
:105EE00040E85FE36D817E818F8198850E941D402F
:105EF0002B013C0120E030E040E85FE36D817E81D2
:105F00008F8198850E941C406D877E878F87988B34
:105F1000C701B6010E94854069877A878B879C8775
:105F20009B01AC016D857E858F8598890E9410420A
:105F30006D8B7E8B8F8B988F9B01AC01C301B2015F
:105F40000E941C406B017C016D817E818F81988550
:105F50000E94E9429B01AC010E941D40698B7A8B33
:105F60008B8B9C8B20E030E040E05FE3C501B40107
:105F70000E94104229813A814B815C810E9410422B
:105F80009B01AC0169897A898B899C890E941042A6
:105F90004B015C019B01AC01C701B6010E941D4091
:105FA00069837A838B839C8329853A854B855C85BD
:105FB000C301B2010E9410426C8F7D8F8E8F9F8F24
:105FC0009B01AC016D857E858F8598890E941C4060
:105FD0009B01AC010E941D40698B7A8B8B8B9C8B43
:105FE000A5019401C701B6010E941C4069877A8708
:105FF0008B879C872D893E894F89588DC301B201BB
:106000000E941D406B017C01A50194010E941D406E
:106010009B01AC016D817E818F8198850E94104229
:10602000212F39A148A1502F0E9410422B013C0181
:1060300020E030E040E050EC6D817E818F819885DA
:106040000E9410426D8B7E8B8F8B988F2C8D3D8D97
:106050004E8D5F8D6D857E858F8598890E941D4050
:10606000D7CE0E94DF424B015C01F101608171815A
:10607000828193819B01AC010E941D409B01AC0178
:10608000C501B4010E9488404B015C0120E030E072
:1060900040E85FE30E941D4069837A838B839C8381
:1060A000C701B6010E9485406B017C0120E030E011
:1060B00040E050EC0E941042698B7A8B8B8B9C8B5A
:1060C000A501940160E070E080E89FE30E941C401D
:1060D00069877A878B879C8720E030E040E05FE328
:1060E000612F79A188A1902F0E9410424B015C0181
:1060F000A701960160E070E080E89FE30E941C40E9
:10610000A50194017FC10E94DF424B015C01D101D6
:106110006D917D918D919C919B01AC010E941D40E0
:106120009B01AC01C501B4010E9488404B015C0198
:1061300020E030E040E85FE30E941D4069837A83FD
:106140008B839C83C701B6010E9485406B017C0153
:1061500020E030E040E050EC0E941042698B7A8BE6
:106160008B8B9C8BA501940160E070E080E89FE33D
:106170000E941C4069877A878B879C8720E030E0EB
:1061800040E85FE3C701B6010E941D406B017C013E
:1061900020E030E040E05FE3612F79A188A1902FFB
:1061A0000E9410429B01AC01C701B6018AC10E9446
:1061B000DF424B015C01F101608571858285938529
:1061C0009B01AC010E941D40A70196010E94104254
:1061D000A50194010E9488409B01AC0168E172E72F
:1061E00081E39FE30E9488400E94BF429B01AC0173
:1061F000C501B4010E9410424B015C0120E030E077
:1062000040E85FE30E941D4069837A838B839C830F
:10621000C701B6010E94854020E030E040E050EC2C
:106220000E941042698B7A8B8B8B9C8BA501940109
:1062300060E070E080E89FE30E941C4069877A87F5
:106240008B879C87212F39A148A1502FC501B4010C
:106250000E9410422B013C01C501B4019058212F2E
:1062600039A148A1502F0E9410424B015C011D86AC
:106270001E861F86188A38C10E94DF424B015C01CE
:10628000D10118966D917D918D919C911B979B01E9
:10629000AC010E941D40A70196010E941042A50179
:1062A00094010E9488409B01AC0168E172E781E3A0
:1062B0009FE30E9488400E94BF429B01AC01C50140
:1062C000B4010E9410424B015C0120E030E040E844
:1062D0005FE30E941D4069837A838B839C83C7019F
:1062E000B6010E94854020E030E040E050EC0E9482
:1062F0001042698B7A8B8B8B9C8BA501940160E09B
:1063000070E080E89FE30E941C4069877A878B8752
:106310009C87212F39A148A1502F69897A898B89BF
:106320009C890E9410426D877E878F87988B812F72
:1063300099A1A8A1B02F4C015D0124013501D4C061
:106340000E94DF4220E030E040E05FE30E94104224
:1063500023EF34E045EB5FE319C00E94DF4220E009
:1063600030E040E05FE30E94104223EF34E045EB71
:106370005FE369C00E94DF4220E030E040E05FE37D
:106380000E94104227ED33EB4DED5FE30E94884001
:106390004B015C0120E030E040E85FE30E941D40DB
:1063A00069837A838B839C83C701B6010E948540F1
:1063B0006B017C0120E030E040E050EC0E94104294
:1063C000698B7A8B8B8B9C8BA501940160E070E0CC
:1063D00080E89FE30E941C4069877A878B879C87AF
:1063E000A701960160E070E080E89FE30E941C40F6
:1063F000212F39A148A1502F0E94104220E030E007
:1064000040E05FE30E9410422B013C01212F39A1A3
:1064100048A1502FC701B6010E9410429B01AC0158
:1064200060E070E080E89FE30E941C4057C00E943B
:10643000DF4220E030E040E05FE30E94104227EDC1
:1064400033EB4DED5FE30E9488404B015C0120E09F
:1064500030E040E85FE30E941D4069837A838B83CC
:106460009C83C701B6010E9485406B017C0120E03E
:1064700030E040E050EC0E941042698B7A8B8B8BAD
:106480009C8BA501940160E070E080E89FE30E948E
:106490001C4069877A878B879C8720E030E040E842
:1064A0005FE3C701B6010E941D406B017C01212FF3
:1064B00039A148A1502F0E94104220E030E040E076
:1064C0005FE30E9410422B013C01C701B6019058C6
:1064D000212F39A148A1502F0E9410426D877E873D
:1064E0008F87988B5301420120E030E0A901698138
:1064F0007A818B819C810E948140882309F476C037
:10650000F101828D813009F085C0818DC988DA88DA
:10651000EB88FC88F7FAF094F7F8F09429853A852F
:106520004B855C85505829873A874B875C8781115A
:106530001FC029813A814B815C81C301B2010E9455
:1065400088406D837E838F83988729813A814B8130
:106550005C816D857E858F8598890E9488402B019E
:106560003C0129813A814B815C81C501B40121C084
:10657000C301B201905829813A814B815C810E940C
:1065800088406D837E838F8398876D857E858F8518
:106590009889905829813A814B815C810E9488407A
:1065A0002B013C01C501B401905829813A814B81EE
:1065B0005C810E9488404B015C0129813A814B81BA
:1065C0005C81C701B6010E9488406B017C01298172
:1065D0003A814B815C8169857A858B859C850E9497
:1065E000884069837A838B839C8327C019821A82AF
:1065F0001B821C82C12CD12C760146015701260139
:10660000370180E090E0A0E8BFE38D839E83AF83F5
:10661000B88713C019821A821B821C82C12CD12C0C
:106620007601460157012601370120E030E040E8BD
:106630005FE32D833E834F8358870D811E812F8119
:10664000388540E06A8D7B8D898D96D96A8D7B8DEA
:106650006F5F7F4F9301820140E0898D8DD96A8DF4
:106660007B8D6E5F7F4F9501840140E0898D84D9D9
:106670006A8D7B8D6D5F7F4F9701860140E0898D2C
:106680007BD96A8D7B8D6C5F7F4F09811A812B814D
:106690003C8141E0898D70D9A1960FB6F894DEBF98
:1066A0000FBECDBFDF91CF911F910F91FF90EF9063
:1066B000DF90CF90BF90AF909F908F907F906F9022
:1066C0005F904F903F902F9008952F923F924F925E
:1066D0005F926F927F928F929F92AF92BF92CF9272
:1066E000DF92EF92FF920F931F93CF93DF93CDB77B
:1066F000DEB7C65AD1400FB6F894DEBF0FBECDBF8D
:10670000982E5B011A019E0127573F4F6901E12C2A
:10671000F12CB701882777FD8095982F0E9423419F
:10672000BFEFEB1AFB0AE3E2EE16F10499F025EB5A
:1067300034EB44E350E40E94104220E030E044EBAC
:1067400052E40E941C40D6016D937D938D939D93DE
:106750006D01DFCFD10114962D913D914D915C914A
:10676000179760E070E080E89FE30E948840C3567E
:10677000DE4F688379838A839B83CD59D140D101D1
:106780008D919D910D90BC91A02DCF55DE4F8883AA
:106790009983AA83BB83C15AD140E9E8F0E0EC0FAA
:1067A000FD1FE857FF4FCB55DE4FF983E883C55AED
:1067B000D1408E010F5F1F4F9E0127573F4FC75695
:1067C000DE4F39832883C959D140412C512C3201E5
:1067D000812CC756DE4FA881B981C959D140CD90CF
:1067E000DD90ED90FD90C756DE4FB983A883C9595F
:1067F000D140CF55DE4F288139814A815B81C15A12
:10680000D140C701B6010E940C4287FD2CC0839481
:10681000B1E08B1212C0C356DE4F288139814A8104
:106820005B81CD59D140C701B6010E941042A7013A
:1068300096010E941C402B013C01C356DE4F28816B
:1068400039814A815B81CD59D140C701B6010E948F
:106850001042A30192010E941C40F80160837183E1
:106860008283938306C0D801CD92DD92ED92FC9293
:1068700013970C5F1F4FC756DE4FE881F981C95946
:10688000D140CB55DE4F28813981C55AD140E2171E
:10689000F30709F09ECF2E0139E8430E511CCE01BB
:1068A0008F5E9E4F6C013201FE0131967F01D70150
:1068B0006D917D918D919D917D0120E030E040EAC8
:1068C00051E40E9488409B01AC0160E070E080E2EE
:1068D00091E40E947342C756DE4F688379838A83AE
:1068E0009B83C959D140F30161917191819191913B
:1068F0003F0120E030E040EA51E40E9488409B01E3
:10690000AC0160E070E080E291E40E9473429B0180
:10691000AC01C756DE4F688179818A819B81C95954
:10692000D1400E948840D6016D937D938D939D93B5
:106930006D01E414F50409F0BACF6E01B7E6CB1A85
:10694000BEEFDB0AFE01EF5EFE4F3F01B501D30152
:106950000D911D912D913D913D017B01BFEFEB1AF2
:10696000FB0A40E0892D08D86C147D0411F0B701B2
:10697000EECF7501E2E2EE0EF11C23E333E343E1D7
:1069800050E4D10118966D917D918D919C911B974A
:106990000E9410429B01AC0160E070E080EA91E44B
:1069A0000E94884020E030E04AE754E40E94104210
